:20000000F6C61895CBC2189518951895189518951895189518951895189518951895189521
:2000200018951895AAC5189503C6189518951895A9C118954C657427732073616D62612060
:200040006E78742061726D20696E2061726D2C202863294C45474F2053797374656D204162
:200060002F530007000106FF0000A20116007C008F009200A300B900C100C800D000D8000E
:2000800034013C01750177017D01890193019E016001620169017301A1015500100100001B
:2000A00010000001720FE6D5D7D45DD3BED25ED266D600E000931A010FEF00931B0152C1CE
:2000C0001AD781E0A0E1B1E069D60D3528F4FD010285002309F036C15CD6FD010285138538
:2000E000011729F0038700E00483058301C03FD10285E8E6F0E0B9C636D109F023C18487F2
:20010000E3D5053F134040F00AE912E0FD01008711870AE0028716C1FD01828713C102E057
:20012000FD01F8CF20D109F4FBD519D108F40AC1CBD50F31104010F0FD018587FD010585C9
:20014000A1D503E0EDCF0FD109F4BCD508D108F4F9C0BAD5073C22E0120708F0F3C00D32B7
:20016000180718F40F31104010F404E0D9CF04E1D7CFF9D009F4D4D5F2D008F4E3C005E0F4
:20018000C9CF01E0CFD500E0FD01048706E0C2CFE2D00132104008F4D5C094D507E0C0CFBD
:2001A00000E00D930D930D930C93139708E0B8CFFED246D2E7D1013011F500E0FD01068389
:2001C0000783068706811781C3D0068317837AD57BD50137134018F009E0FD010287FD0193
:2001E00006850130A1F4B8D0063A20E0104088F0248325830785013051F427870DC0FD0154
:20020000068117810A391240E8F28687E0CF878704C00785002309F483D545D5013019F466
:200220000BE0FD01028738D5002319F401E1FD010287A9D1013009F485C00D911D912D91AF
:200240003C9186D02F4F3F4F3C932E931E930E930D911D912D911397003A16482140304070
:2002600008F470C001E15CCF7ED200E05BD5FD0184870AE912E04BCF25D5FD0100851185CA
:20028000012BB9F04DD520D5053F1340FD010085118550F05DD0008711870533154008F4AD
:2002A00051C010D50BE03CCF015010400087118749C00AD5033D124008F044C000E030CF3D
:2002C00002E12ECF50D009F42BD549D0D8F103E121CF49D011F400E025D53DD00D341140D4
:2002E00088F104E117CF05E11BCF0CE019CF3ED00234104038F10DE00DCF35D021F419D588
:200300000FD500E00FD532D00D341140D8F00EE001CF29D011F401E005D528D005301D40D8
:2003200088F00FE0F7CE1FD019F400E0FBD404D51DD00D34114030F000E1ECCE01E0F2D42C
:200340002DCF80E0FD010485C8D3082FE4E0D9C50F5F1F4F07C0FD010481158103C0FBDF2D
:20036000033010400895F7DF012BFCCFFD01F4DFEFDF04831583F6CF17D508D167D11FD21F
:20038000F7D3DDC4BA93AA93FA93EA935A934A933A932A931A930A935FB7219700E211E01F
:2003A0002091B900287F2058A1F0285209F469C0205109F491C0205409F49AC0285009F484
:2003C00099C0205609F0A2C020E0F8012687268F9DC02091BB00F8012483268D205029F0F3
:2003E0002A9579F02A95A9F191C024812C3C39F0422FB2D0ACD0068D0395068F87C022E07D
:20040000E6CF4481A9D0A3D0293008F47FC0358F3687A2D02C91358D320F358F8DD02930B5
:20042000C0F33F3FA1F428E031E02083318320E0268792D02C91D801ED91FC912193FC9393
:20044000EE93F80179D02830A0F321E0278F23E6BECF2685322F339536874481E4E3F0E0B4
:2004600030E0E20FF31F2491421741F4F80126852E3208F44BC021E020A348C023E6F8014D
:20048000A6CF20E0F801258F28E531E02283338320E0248FD8011296ED91FC914081D801E8
:2004A0001F96F801248D44D04C93A281B3812D91A283B383358D320F358F248D2395248F97
:2004C0002C3040F3432F409544D04C9327852093BB0021E0248F1AC0F801248D2D30B0F400
:2004E00038D02C912093BB00048D0395048F0EC02AD00CC001E008830091BC000F7D0093A1
:20050000BC0000E008831FD002E008830091BC0000680093BC0021965FBF09911991299181
:20052000399149915991E991F991A991B991189530E0A20FB31F06C026852395268702C0CD
:200540000093BC0008950091BC000069F9CF4C93F3CFD8011F96ECCFD80115962685E8CF61
:2005600000913F0110E010933F01ECCF02E00093BA0005EC0093BC0000E000933F01009367
:200580004001E0CFEDCF00914001DCCF08B10F7C08B907B1006307B900E8D2CF8A93FA931F
:2005A000EA933A922A921A920A927A936A935A934A933A932A931A930A938FB7E998E0E0BF
:2005C000F0E009958FBF099119912991399149915991699179910990199029903990E99191
:2005E000F9918991189503E400937C0000917A00087F056000937A0012D010917A0016FDA0
:20060000FCCF0DD010917A0016FDFCCF00917800109179004B9902C00150184F10C0009157
:200620007A00006400937A000AC0E9985B9A539843983B9800917E00086000937E000895D1
:20064000D2DFE8E5F1E000871187F9CF5B9A539800916900037F00936900E19AE99AEFCF50
:20066000002339F00A9541F00A9549F00A9551F074C0599A519A71C0589A509A6EC02C9A93
:20068000249A6BC02D9A68C0002339F00A9541F00A9549F00A9551F060C05998519A5DC095
:2006A0005898509A5AC02C98249A57C02D9854C00A9303C008810A95088308810023D1F74D
:2006C00021964BC01AD4802FF89420910F0100E145D0082F11F0C4DF01C0D6DF38D0F91F07
:2006E0000491005C00937C0000E1E2DF00917A00087F056024D010917A0016FDFCCF0091E3
:200700007A00087F06601BD00CE0D2DF20910F0101E024D011F0082FA3DF789410917A0073
:2007200016FDFCCF009178001091790022E0829FF001E85AFE4F00831183E2E0E4C3009302
:200740007A0000917A00006400937A0006C0E3E6F0E090E0E80F01C0259A089510E0482F59
:2007600061D30223FACFC9D380E001E010E0EFDF15D0102F109527B1212327B910917E00D8
:20078000102B10937E00082F7FDF8395843068F305E900937A0090937B00CFCFF11F449125
:2007A00041D3102F109528B1212328B9D6CF00E089DF01E087DF02E085DF03E083CF8A9377
:2007C00080E0082F61DF01E010E0E3E6F0E0E80FE5DF17B1102B17B98395843090F300E11A
:2007E00000937A008991B9CF402F043048F008EE13E050E01DD337D00A6022D00A6106C0D2
:200800000DE702D330D00B601BD00B610093810000E008BD0091000107BD00E010E00093DB
:2008200089000093880007D00091000100938600109387003DC000938B0000938A0038C038
:2008400005BD009180000C7F009380000091800002600093800000918100007E00938100FD
:200860000091810025C00093000105B5007F05BD05B51EC0002329F00A9531F00A9541F08E
:2008800017C011D020D001C004D00093800010C010C00BB1006E0BB90AB1006E0AB90091FD
:2008A00080000F7305C005B10B6002C004BD18BD089505B1046C05B904B1046C04B904B5DC
:2008C0000F7C04BDF5CF05B904B10B6004B9009180000F7CEDCF05B1047FF5DF00938000F5
:2008E000E7CF002329F00A9539F00A9549F0E0CF05B1047FE8DF01C004D000938000D8CF68
:2009000003C00BB10F71C7CF05B10B73D4CF002329F00A9541F00A9561F0CACFC4DFDDDF77
:200920002B98239817C0B5DF009380005F98579806C0BFDF2E98269804B50063B7CF0091BA
:200940008000006C0093800030E03093890010938800AECF0091800000630093800030E0FD
:2009600030938B0010938A00A3CF002329F00A9541F00A9561F09CCF96DFAFDF28982098A8
:20098000E9CF87DF009380005E985698D8CF91DF2F982798D1CF002329F00A9531F00A956A
:2009A00049F086CF98DF20980EC0ABDF00938000569805C0A9DF279804B5006277CF009123
:2009C00080000068BFCF009180000062C6CF002329F00A9531F00A9549F06ACF7CDF239876
:2009E000F2CF8FDF009380005798E9CF8DDF2698E3CF83D2C801043068F51123212F0AF401
:200A0000219500910001209F800144E650E010D2202F3091010101E010E0482F03D20323BD
:200A200069F0992341F09130122F082F14F06FDF11C09BDF0FC0082F1DDF0CC0992341F0DF
:200A40009130122F082F14F0A6DF04C0C0DF02C0082F47DFE2E057C24ED225DF3EDF36D030
:200A600000E010E00093850000938400E4DE00936F000FDF0093800029D0109385001093EE
:200A80008400109389001093880010936F0011DF03E004BD01E005BD16BD18BD10936E0079
:200AA000A0E0B1E00FEFFD01018380E000E0FD0190E0E80FF01F028310E0082F9ADF8395B4
:200AC0008430A0F3FD019783E4E01BC201E00093800009E000938100EBCE0CD2402E80910F
:200AE0000901A0E0B1E0FD010681081781F0882371F0813260F48683082F76DE80E000E0DF
:200B0000FD01E80FF01F028383958430C0F390910E0180E0EAE0F1E010E0E80FF11F01E0CA
:200B2000401629F4482F7ED1902B00E0008350819D012E5F3F4F10E0280F311FF9010081E2
:200B4000051741F4FD016781692701E0482F6AD1062339F0FD019183F9015083152F082F8F
:200B600048DF83958430B0F2FD019783E5E0C8C1B2DEC7DE00938000C7CE55D05A934A93AE
:200B80003A932A931A930A935FB7E1E4F1E02091C600008510E0DF01A00FB11F2C93008546
:200BA00003950087083088F108E011E020E00AC030E0DF01A20FB31F2C91D8012D938D016B
:200BC0002085239520872085283090F300E0008708E511E020E0258BD8014D918D01DF0177
:200BE0001996258930E0A20FB31F4C9325892395258B2C3088F301850093C60001E0058BE9
:200C00000091C10000640093C1005FBF09911991299139914991599101D01895E991F9919E
:200C2000A991B99126C0BA93AA93FA93EA9321C0FADF2A931A930A932FB7E1E4F1E0DF0199
:200C40001996058910E0A00FB11F0C910093C60005890395058B0C3038F00091C1000F7BFC
:200C60000093C100158B10872FBF099119912991D3CF089542983A9800917E00046000930C
:200C80007E0037C00023E8E5F1E0038511F0006801C00F7703872DC001E0109108011A3595
:200CA00009F400E026C000E010910801153A49F4109109011A3529F400930801009309010B
:200CC00001E017C05A9A14C021D010917A0016FDFCCF16D010917A0016FDFCCF0BD0E8E523
:200CE000F1E033853078312B34620287338701C0529A089500917800109179001370F9CFD6
:200D000000917A00006400937A00F3CF02E400937C0000917A00087F056000937A00F0CFDD
:200D20005A98E6CF013011F45C9A01C05C98549AE0CF429A3A9ADDCF42983A98DACF5C98E9
:200D4000549A5A98529AE2DF10917A0016FDFCCFD7DF10917A0016FDFCCFCCDF1093790097
:200D6000009378002091780030917900E8E5F1E013851078132B146222871387BACF00E0E7
:200D80000093B00006E00093B10000E00093B2000AC00091B2000093570105C00091B200C1
:200DA00010915701011B0895FECF00E003BF00E80093610000E000936100789412D015D08F
:200DC0000130E9F30AD0D8DA00E000937A0005E003BF8895E0E0F0E0099400E000936401C4
:200DE0000895FBDF60D901E0F9CF6AD9F7CF04EE0DBF01E00EBFC5E2D2E08ED0002309F052
:200E00009BD0D3DFB3D0B2C00024E8E0EA9532F0001F001C0416D0F3041AF8CF001F402DAA
:200E2000009508954A951AF0000F111FFBCF089500241124EFE0001F111F001C111C041617
:200E4000150610F0041A150AEA95AAF7001F111FA00100951095089575916591559145919B
:200E6000159011FA259035900895F9DF041B10E003C0F4DF041B150B20E030E005C0ECDF4F
:200E8000041B150B260B370BB8F010FC17C045910590E00FF11F0417100540E024073407F5
:200EA00058F436F404910024F101E01BF0090994E00FF11F25903590F101099411F4D6F7A6
:200EC000F1CF31960EF0319650E060E070E045914B3F48F089F34F3F29F04E3F11F07591B7
:200EE000659155914591041B150B260B370B39F318F3E7CF4A92BA93AA939A938A93089554
:200F00004C80BB81AA8199818881F0E00FB6F894CE0FDF1F0FBE089501E0089520E002D0C5
:200F2000E9F708952D9301501040202F212B08952591F8DFE9F708958AE990E0FC0105911B
:200F40001491FC013296A591B491FC01349625913491422F432B19F0F901EADF01C0DEDF41
:200F6000069610E0863A910748F3089500008895FECFFF00000000000000000400000000C8
:020F80000F0F51
:00000001FF
